:020000040800F2
:1000000000170020CD010008F1030008E9030008F3
:10001000ED0300087D0200086B0F000800000000DF
:100020000000000000000000000000000D0D0008AE
:100030008102000800000000E90C0008210E000801
:10004000E7010008E7010008E7010008E7010008F0
:10005000E7010008E7010008E7010008E7010008E0
:10006000E7010008E7010008E7010008E7010008D0
:10007000E7010008E7010008E7010008E7010008C0
:10008000E7010008E7010008E7010008E7010008B0
:10009000E7010008E7010008E7010008E7010008A0
:1000A000E7010008E7010008E7010008E701000890
:1000B000E7010008E7010008E7010008E701000880
:1000C000E7010008E7010008E7010008E701000870
:1000D000E7010008850E0008E7010008E7010008B5
:1000E000E7010008E7010008E7010008E701000850
:1000F000E7010008E7010008E7010008E701000840
:10010000E7010008E7010008E7010008E70100082F
:10011000E7010008E7010008E7010008E70100081F
:10012000E7010008E7010008E7010008E70100080F
:1001300000F002F800F03AF80AA090E8000C8244BF
:100140008344AAF10107DA4501D100F02FF8AFF29C
:10015000090EBAE80F0013F0010F18BFFB1A43F0A5
:10016000010318479C4E0000BC4E0000103A24BF0B
:1001700078C878C1FAD8520724BF30C830C144BF0C
:1001800004680C607047000000230024002500264E
:10019000103A28BF78C1FBD8520728BF30C148BFEA
:1001A0000B6070471FB51FBD10B510BD00F033F8D0
:1001B0001146FFF7F7FF00F025FF00F051F803B4F8
:1001C000FFF7F2FF03BC00F0D2FE000009488047B1
:1001D00009480047FEE7FEE7FEE7FEE7FEE7FEE729
:1001E000FEE7FEE7FEE7FEE704480549054A064B41
:1001F00070470000250E00083101000800110020A2
:1002000000170020001300200013002070477047E3
:10021000704770477047754600F02CF8AE460500F1
:100220006946534620F00700854618B020B5FFF711
:10023000DBFFBDE820404FF000064FF000074FF015
:1002400000084FF0000B21F00701AC46ACE8C009F4
:10025000ACE8C009ACE8C009ACE8C0098D467047FD
:1002600010B50446AFF300802046BDE81040FFF70C
:10027000A6BF0000004870479C10002000BFFEE7AA
:10028000704710B5222000F073FCF72000F06AFCE4
:10029000202000F06DFC00F001F810BD10B505E065
:1002A0004021044800F093F800B900E0F8E700BFEF
:1002B00010BD0000000C01402DE9F0410246002570
:1002C0000026002000230024002791F803C00CF032
:1002D0000F0591F803C00CF0100CBCF1000F03D017
:1002E00091F802C04CEA050591F800C0BCF1000F7E
:1002F00031D0146800202BE04FF0010C0CFA00F311
:10030000B1F800C00CEA03069E4220D183004FF0F2
:100310000F0C0CFA03F7BC4305FA03FC4CEA040487
:1003200091F803C0BCF1280F06D14FF0010C0CFA74
:1003300000FCC2F814C00AE091F803C0BCF1480FF9
:1003400005D14FF0010C0CFA00FCC2F810C0401CA3
:100350000828D1D31460B1F800C0BCF1FF0F34DD20
:10036000546800202EE000F1080C4FF0010808FA54
:100370000CF3B1F800C00CEA03069E4221D18300C1
:100380004FF00F0C0CFA03F7BC4305FA03FC4CEAE0
:10039000040491F803C0BCF1280F05D100F1080C4A
:1003A00008FA0CF8C2F8148091F803C0BCF1480FA9
:1003B00007D100F1080C4FF0010808FA0CF8C2F858
:1003C0001080401C0828CED35460BDE8F08102465E
:1003D000002093680B400BB1012000E00020704723
:1003E000416170470161704700BFFEE700BFFEE753
:1003F0007047000030B50246002110E0002008E000
:10040000094C248A01FB0403074D2D68EA54441C5F
:10041000A0B2054C248A8442F2DC4C1CA1B2024CEE
:10042000648A8C42EADC30BD200000202DE9F047D0
:10043000044600274FF494784FF01009242000F070
:1004400097FB002609E0002504E0E05D00F08AFB50
:100450007F1C6D1C4545F8D3761C4E45F3D3FFF742
:1004600010FFBDE8F0872DE9FF4F04460D46164604
:100470001F46A146AA46301B01D4301B00E0A01B3A
:100480008346781B002801DC781B00E0E81B039002
:10049000B44201DA012001E04FF0FF300290BD428A
:1004A00001DA012001E04FF0FF30019003980BEBDF
:1004B00000080020009000BF0098401CC0B20090CF
:1004C000514648460D9A00F01EF84FEA480103983D
:1004D000814208DBB14500D112E0039880440298C4
:1004E00048441FFA80F94FEA48005845E4DCBA4511
:1004F00000D105E0D844019850441FFA80FADBE7A8
:1005000000BFBDE8FF8F70B504460D4616466A1E53
:1005100091B2621E90B2324600F078FB70BD2DE9B8
:10052000F84780460E4691461F46DDE9094ABAF172
:10053000000F0DD0354608E02B464A462946404676
:100540000094FFF790FF681C85B2BD42F4DB1BE00E
:1005500033464A46314640460094FFF784FF3B4607
:100560004246314640460094FFF77DFF33464A46F7
:10057000394648460094FFF776FF3B4642463946E7
:1005800048460094FFF76FFFBDE8F88708B50121E2
:100590003C2000F0ABFBB020ADF8000010208DF83F
:1005A000030003208DF8020069461A48FFF784FE15
:1005B000B0211848FFF716FF2020ADF8000069466B
:1005C0001548FFF779FE20211348FFF70BFF4FF482
:1005D0008050ADF8000069461048FFF76DFE4FF4FB
:1005E00080510E48FFF7FEFE0420ADF8000069467A
:1005F0000B48FFF761FE04210948FFF7F3FE402096
:10060000ADF8000048208DF8030069460248FFF766
:1006100053FE08BD00080140000C014000100140DD
:100620000014014010B5FFF7B1FF04213248FFF775
:10063000D7FE142000F0C0FC04212F48FFF7D2FEA3
:10064000142000F0B9FCFFF729FE122000F090FA08
:10065000FFF724FE012000F08BFA272000F082FA39
:10066000012000F07FFA012000F07CFA112000F058
:100670007FFA012000F076FA442000F079FA002099
:1006800000F070FA0F2000F06DFA452000F070FACB
:10069000272000F067FA012000F064FA002000F043
:1006A00061FA002000F05EFA3C2000F061FA0520BB
:1006B00000F058FA212000F05BFA002000F052FA16
:1006C000802000F04FFA182000F052FA802000F04D
:1006D00049FA4E2000F04CFA002000F043FA4F2077
:1006E00000F046FA272000F03DFA012000F03AFA27
:1006F000FFF7D4FD10BD00000014014010B5024604
:10070000012000E050430B1EA1F10104A1B2F9D178
:1007100010BD00002DE9FE4F0646884692461C4655
:10072000701C86B208F101001FFA80F80196CDF81E
:100730000080082C02D14FF006091FE02046E31785
:1007400004EB5373DB1021464FEAE47C04EB5C7C42
:100750004FEAEC0CA4EBCC0CBCF1000F02D04FF034
:10076000010C01E04FF0000C6344224604EBD27C04
:100770004FEA6C0C03FB0CF31FFA83F9AAF120007B
:1007800087B200255EE0082C07D107EB47002F4910
:1007900001EB400010F805B01DE00C2C07D107EB71
:1007A00047002B4901EB800010F805B013E0102C36
:1007B00005D1284800EB071010F805B00BE0182C05
:1007C00007D107EBC700244901EB800010F805B002
:1007D00001E0BDE8FE8F002002901CE00BF001005C
:1007E00028B1414630460C9AFFF78DFE09E00C987F
:1007F00008B9012000E00020024641463046FFF7DC
:1008000082FE4FEA6B0B08F101001FFA80F8029894
:10081000401C80B2029002980828DFDB701C86B270
:10082000082C0BD004EBD4714A100199711A8A423A
:1008300004D1019E0098083080B20090DDF800805D
:10084000681C85B24D459EDB00BFC2E7B0120008B0
:10085000D81400084C1900083C1F00082DE9FC4F73
:100860000646884617461C462046E21704EB52729D
:10087000D2102146E31704EB5373DB10A4EBC30340
:100880000BB1012300E000231A44624392B20092AC
:10089000701C86B208F101001FFA80F8B146C2460A
:1008A000002556E0102C05D12C4800EB4710405D88
:1008B00001901BE0182C07D107EBC700284901EB7A
:1008C000C000405D019011E0202C05D1254800EBCF
:1008D000C710405D019009E0402C05D1224800EB93
:1008E0004720405D019001E0BDE8FC8F4FF0000B18
:1008F0001EE0019800F0010028B1414630460B9AF5
:10090000FFF701FE09E00B9808B9012000E0002084
:10091000024641463046FFF7F6FD0198401001902F
:1009200008F101001FFA80F80BF101001FFA80FBAB
:10093000BBF1080FDDDB701C86B2A6EB0900A042FC
:1009400004D14E460AF108001FFA80FAD046681C0E
:1009500085B200988542A5DB00BFC5E7982C00084A
:10096000F82D0008402E0008C02E00082DE9FF4F8A
:1009700082B0064691461F46DDE90F4A4FF0000B54
:10098000082C01D14FF0020B00252FE0781B401EF0
:1009900081B20A20FFF7B2FEB9FBF0F00A21B0FBEA
:1009A000F1F201FB1208B8F1000F0ED104EBD47183
:1009B0000BEB610101FB056188B223463022CDE9D2
:1009C00000A40399FFF7A6FE0EE004EBD4710BEB35
:1009D000610101FB056188B2234608F13002CDE9CF
:1009E00000A40399FFF796FE681CC5B2BD42CDDB9B
:1009F00006B0BDE8F08F2DE9FF4F05460E461746BD
:100A00001C46DDF838904FF0000A681C85B2701C57
:100A100086B20095B3462046E21704EB5272D2101C
:100A20002146E31704EB5373DB10A4EBC3030BB1B4
:100A3000012300E000231A4494B24FF0000845E07F
:100A4000002003903BE00D9810F80A0002900AF194
:100A500001001FFA80FA002001901DE0029800F0CA
:100A6000010058B1B9F1000F01D1012000E00020D0
:100A7000024631462846FFF746FD04E04A46314625
:100A80002846FFF740FD029840100290701C86B285
:100A90000198401C80B2019001980828DEDB681C98
:100AA00085B20098281AB84204D1009D0BF10800C5
:100AB0001FFA80FB5E460398401C80B203900398A7
:100AC000B842C0DB08F101001FFA80F8A045B7DB8F
:100AD000BDE8FF8F2DE9F84106460F4614461D4636
:100AE000DDF81C800EE0CDF8008022782B463946D8
:100AF0003046FFF70FFE641C284605EBD07106EB6D
:100B000061018EB220780028EDD1BDE8F8810000A7
:100B100070B5044610211248FFF762FC002517E06B
:100B200020210F48FFF75CFC04F0800020B18021F9
:100B30000B48FFF757FC03E080210948FFF750FC02
:100B400020210748FFF74EFC6006040E681CC5B262
:100B5000082DE5DB10210248FFF744FC70BD0000C2
:100B60000008014010B504462046FFF7D1FF10BD34
:100B700010B5044620210548FFF732FC2046FFF758
:100B8000C7FF20210148FFF72DFC10BD000C0140DC
:100B90002DE9F0410646069F00201B4C20602046B0
:100BA00006600181428187810C464FEAE17C01EBBE
:100BB0005C7C4FEAEC0CA1EBCC0CBCF1000F07D134
:100BC0000D464FEAE57C05EB5C7C4FEAEC0C08E057
:100BD00008464FEAE17C01EB5C7C4FEAEC0C0CF13F
:100BE000010CDFF82480A8F810C040464282C3817F
:100BF0000BB1B42B03D104488280C18002E00248CB
:100C00008180C280BDE8F081200000202DE9F04104
:100C100003461746334EF6893EB15A2E0CD0B42EF9
:100C200015D0B6F5877F1CD118E02E4E3689761A7E
:100C3000761EB0B21A4616E02A4E3689F61A761E8D
:100C4000B0B2284E7689761A761EB2B20BE008460C
:100C5000244E7689F61A761EB2B204E018460A4689
:100C600001E0BDE8F08100BF06464FEAE07C00EB02
:100C70005C7C4FEAEC0CDFF86C80B8F8108002FB6B
:100C800008C4184E3668355DAFB906464FEAE07CB9
:100C900000EB5C7C4FEAEC0CA0EBCC084FF0800C36
:100CA0004CFA08FC25EA0C0CDFF83880D8F80080F4
:100CB00008F804C014E006464FEAE07C00EB5C7CD8
:100CC0004FEAEC0CA0EBCC084FF0800C4CFA08FC7F
:100CD0004CEA050CDFF80C80D8F8008008F804C056
:100CE00000BFBEE7200000207047000029B1064A7F
:100CF00092690243044B9A6104E0034A9269824379
:100D0000014B9A617047000000100240704710B517
:100D100000F002F810BD00000CB50020019000901A
:100D20003348006840F480303149086000BF3048E3
:100D3000006800F4003000900198401C0190009879
:100D400018B90198B0F5A06FF1D12948006800F4F6
:100D5000003010B10120009001E0002000900098C8
:100D6000012843D12348006840F010002149086061
:100D70000846006820F0030008600846006840F05C
:100D8000020008601A4840681949486008464068EF
:100D900048600846406840F4806048600846406803
:100DA00020F47C1048600846406840F4E810486031
:100DB0000846006840F08070086000BF0C4800687A
:100DC00000F000700028F9D00948406820F00300C6
:100DD000074948600846406840F00200486000BF8C
:100DE0000348406800F00C000828F9D10CBD000051
:100DF0000010024000200240042808D14FF0E021FA
:100E0000096941F004014FF0E022116107E04FF061
:100E1000E021096921F004014FF0E02211617047DF
:100E20007047000010B51348006840F001001149F8
:100E3000086008464068104908400E494860084666
:100E400000680E4908400B4908600846006820F415
:100E5000802008600846406820F4FE0048604FF497
:100E60001F008860FFF753FF4FF0006004490860DF
:100E700010BD0000001002400000FFF8FFFFF6FE6A
:100E800008ED00E010B540F225511D4800F03EF895
:100E900010B31B4800F064F8C4B21A48008800F48C
:100EA0000040C8B91748008800F4804060B10A2C9F
:100EB00003D000201349088020E01248008840F445
:100EC00000401049088019E00D2C06D10D4800881B
:100ED00040F480400B49088010E00A480088C0F3C5
:100EE0000D0009490C5407480088401C054908803A
:100EF00008460088C72801DD0020088010BD0000DA
:100F000000380140080000203400002070B502467F
:100F1000002400230025002040F66A16B14200D1CB
:100F200000BFC1F3421501F01F03012606FA03F3C7
:100F3000012D02D19689334006E0022D02D1168A96
:100F4000334001E0968A33400C12012606FA04F47D
:100F50001688344013B10CB1012000E0002070BDB0
:100F600001468888C0F30800704700BFFEE700BF55
:100F70007047000010B56FF00400FFF73DFF0A480E
:100F800000680A49B0FBF1F009490870084600788A
:100F900000EB4001C1EBC0104FF6FF7101EAC00049
:100FA0000449088010BD00000C00002000127A00E7
:100FB00000000020020000200146114A12884A4326
:100FC0004FF0E0235A6100229A611A46126942F0FA
:100FD00001021A6100BF4FF0E022106900F0010227
:100FE0001AB100F48032002AF5D04FF0E0221269E5
:100FF00022F001024FF0E0231A6100229A6170474B
:10100000020000201CB52024FFF7B4FFFFF70AFB05
:10101000FF200023FA227A2100908148FFF7B8FDD3
:10102000FF20FFF7E7F9F9E0FFF7FCFA00207D4920
:101030007A23FA22CDE900100146FFF7DCFC78485C
:10104000FFF7F4F94FF47A70FFF7B6FF4FF47A70B8
:10105000FFF7B2FF4FF47A70FFF7AEFFFF20FFF704
:10106000C9F9FFF7DFFA002010230246014600907D
:101070002620FFF7F3FB00201023012201460090F9
:101080003620FFF7EBFB00201023022201460090E0
:101090004620FFF7E3FB00201023032201460090C7
:1010A0005620FFF7DBFB00201023042201460090AE
:1010B0006620FFF7D3FB0020102305220146009095
:1010C0007620FFF7CBFB002010230622014600907C
:1010D0008620FFF7C3FB0020102307220146009063
:1010E0009620FFF7BBFB002010230822014600904A
:1010F000A620FFF7B3FB0020102309220146009031
:10110000B620FFF7ABFB002010230A220146009017
:10111000C620FFF7A3FB0020102343A21421009058
:101120005520FFF7D7FC0020102342A22821009071
:101130003920FFF7CFFC0020102340A22821009087
:101140008620FFF7C7FC00201023224628210090AC
:101150006C20FFF7DFFA0020102103232246CDE99F
:1011600000102821AF20FFF701FC601CC4B27E2CC8
:1011700000DD20240020102332A2382100900A2014
:10118000FFF7A8FC0020102336A2492100901A2066
:10119000FFF7A0FC00205923FA22194600900120F5
:1011A000FFF761F90020102335A25A2100901E207C
:1011B000FFF790FC0020102338A26A210090342011
:1011C000FFF788FC1648FFF731F94FF47A70FFF704
:1011D000F3FE4FF47A70FFF7EFFE4FF47A70FFF7EB
:1011E000EBFEFFF71FFA002000907A23FA2201217C
:1011F00001900846FFF793F90948FFF717F94FF4F4
:101200007A70FFF7D9FE4FF47A70FFF7D5FE4FF4EE
:101210007A70FFF7D1FEFF20FFF7ECF804E700003B
:10122000FC00002060400008323031342F30352F70
:101230003031000041534349493A0000434F44458F
:101240003A00000057656C636F6D6520746F203243
:101250002E31332D696E636820452D706170657283
:101260000000000077697468203235302078203122
:101270003232207265736F6C7574696F6E00000096
:101280005A686F6E676A696E677975616E20456C22
:10129000656374726F6E6963000000005465636873
:1012A0006E6F6C6F677920436F2E2C4C74642E0028
:1012B0000000000000000000002F000000000700F8
:1012C000070000147F147F1400242A7F2A12006272
:1012D000640813230036495522500000050300001E
:1012E00000001C224100000041221C000014083EA6
:1012F00008140008083E0808000000A0600000086C
:1013000008080808000060600000002010080402BF
:10131000003E5149453E0000427F4000004261517D
:101320004946002141454B31001814127F10002717
:1013300045454539003C4A494930000171090503DA
:1013400000364949493600064949291E000036360B
:10135000000000005636000000081422410000146E
:10136000141414140000412214080002015109064B
:1013700000324959513E007C1211127C007F4949CC
:101380004936003E41414122007F4141221C007FFD
:1013900049494941007F09090901003E4149497A0B
:1013A000007F0808087F0000417F41000020404185
:1013B0003F01007F08142241007F40404040007FF1
:1013C000020C027F007F0408107F003E4141413E35
:1013D000007F09090906003E4151215E007F09197D
:1013E00029460046494949310001017F0101003F7A
:1013F0004040403F001F2040201F003F4038403FFA
:10140000006314081463000708700807006151495D
:10141000454300007F41410000552A552A550000F0
:1014200041417F000004020102040040404040406E
:10143000000001020400002054545478007F484406
:10144000443800384444442000384444487F00383D
:101450005454541800087E0901020018A4A4A47C66
:10146000007F080404780000447D40000040808430
:101470007D00007F102844000000417F4000007C78
:1014800004180478007C0804047800384444443884
:1014900000FC242424180018242418FC007C0804D0
:1014A000040800485454542000043F444020003CA9
:1014B0004040207C001C2040201C003C4030403C30
:1014C000004428102844001CA0A0A07C00446454C0
:1014D0004C44141414141414000000000000000004
:1014E000000000000000FC000000000002000000FE
:1014F000000C020C020000000000000090D0BCD0E4
:10150000BC900003000300001824FE448C0003027A
:10151000070201001824D8B04C800003000102012A
:10152000C038E438E00001020201020208060000AF
:101530000000000000000000000000F804020000AD
:1015400000010204000204F800000004020100008F
:101550009060F86090000000010000002020FC2056
:10156000200000000100000000000000000008064C
:1015700000000000202020202000000000000000CB
:101580000000000000000002000000000080601C5D
:101590000200040300000000F8040404F800010243
:1015A000020201000008FC0000000002030200002B
:1015B00018844424180003020202020008042424B0
:1015C000D80001020202010040B088FC8000000047
:1015D000000302003C242424C40001020202010092
:1015E000F824242CC0000102020201000C04E41CB7
:1015F0000400000003000000D8242424D8000102C5
:101600000202010038444444F800000302020100D1
:101610000000100000000000020000000000200098
:1016200000000000060000000020508804020000B6
:1016300000000102909090909000000000000000D7
:101640000002048850200002010000001804C42495
:101650001800000002000000F804E494F800010201
:101660000202020000E09CF080000203000003027E
:1016700004FC2424D800020302020100F80404043C
:101680000C0001020202010004FC0404F800020341
:101690000202010004FC24740C0002030202030095
:1016A00004FC24740C00020302000000F00804444F
:1016B000CC4000010202010004FC2020FC040203D3
:1016C000000003020404FC040400020203020200FE
:1016D000000404FC040406040403000004FC24D0F9
:1016E0000C0402030200030204FC040000000203D5
:1016F00002020203FC3CC03CFC00030003000300A8
:1017000004FC30C4FC04020302000300F8040404D7
:10171000F80001020202010004FC24241800020364
:1017200002000000F8848404F800010202070500AA
:1017300004FC2464980002030200030218242444D9
:101740008C000302020201000C04FC040C000002E5
:101750000302000004FC0000FC040001020201007E
:10176000047C80E01C040000030000001CE03CE05E
:101770001C00000300030000049C609C04000203A2
:1017800000030200041CE01C04000002030200002D
:101790000C84641C04000203020203000000FE0229
:1017A0000200000007040400000E30C0000000002A
:1017B00000010200000202FE000000040407000015
:1017C000000402040000000000000000000000000F
:1017D00000000808080808080000020000000000D7
:1017E000000000000040A0A0C000000102020302AF
:1017F00004FC2020C00000030202010000C02020E1
:10180000600000010202020000C02024FC00000170
:101810000202030200C0A0A0C000000102020200F8
:101820000020F82424040002030202000040A0A0CB
:10183000602000070A0A0A0404FC2020C0000203FA
:10184000020003020020E400000000020302000086
:10185000000020E4000008080807000004FC80E005
:1018600020200203020003020404FC000000020224
:1018700003020200E020E020C00003000300030098
:1018800020E02020C00002030200030200C020204C
:10189000C00000010202010020E02020C000080F6B
:1018A0000A02010000C02020E0000001020A0F0827
:1018B00020E0402020000203020000000060A0A001
:1018C00020000002020203000020F82000000000B7
:1018D0000102020020E00020E000000102020302F9
:1018E00020E0208060200000030100006080E08094
:1018F00060000003000300002060806020000203FD
:101900000003020020E0208060200808070100009A
:101910000020A0602000000203020200000020DE80
:101920000200000000070400000000FF00000000AB
:10193000000F00000002DE2000000004070000008D
:101940000201020404020000000000000000000088
:10195000000000000000000000000000000000F88F
:1019600000000000000000333000000000100C06F2
:10197000100C0600000000000000000040C078408D
:10198000C0784000043F04043F040400007088FC59
:1019900008300000001820FF211E0000F008F000B1
:1019A000E018000000211C031E211E0000F0088822
:1019B000700000001E2123241927211010160E008C
:1019C000000000000000000000000000000000E037
:1019D000180402000000000718204000000204184C
:1019E000E00000000040201807000000404080F0A8
:1019F000804040000202010F01020200000000F0DE
:101A0000000000000101011F0101010000000000B1
:101A10000000000080B07000000000000000000026
:101A200000000000000101010101010100000000AF
:101A30000000000000303000000000000000000046
:101A400080601804006018060100000000E0100823
:101A50000810E000000F102020100F00001010F8F8
:101A6000000000000020203F202000000070080837
:101A700008887000003028242221300000300888B7
:101A8000884830000018202020110E000000C020DF
:101A900010F8000000070424243F240000F8088800
:101AA000880808000019212020110E0000E010888D
:101AB00088180000000F112020110E0000380808BF
:101AC000C83808000000003F0000000000708808CF
:101AD00008887000001C222121221C0000E0100850
:101AE0000810E0000000312222110F00000000C0A9
:101AF000C000000000000030300000000000008046
:101B00000000000000008060000000000000804035
:101B1000201008000001020408102000404040404E
:101B200040404000040404040404040000081020A1
:101B300040800000002010080402010000704808E6
:101B40000808F0000000003036010000C030C8284E
:101B5000E810E0000718272423140B000000C03809
:101B6000E0000000203C23020227382008F8888883
:101B700088700000203F202020110E00C03008088F
:101B800008083800071820202010080008F8080866
:101B90000810E000203F202020100F0008F888885F
:101BA000E8081000203F20202320180008F888882B
:101BB000E8081000203F200003000000C0300808A3
:101BC0000838000007182020221E020008F808002C
:101BD0000008F808203F210101213F20000808F8F3
:101BE000080800000020203F202000000000080816
:101BF000F8080800C08080807F00000008F888C0D6
:101C000028180800203F20012638200008F8080086
:101C100000000000203F20202020300008F8F800BD
:101C2000F8F80800203F003F003F200008F830C0CF
:101C30000008F808203F200007183F00E0100808BF
:101C40000810E0000F10202020100F0008F80808EE
:101C50000808F000203F210101010000E010080801
:101C60000810E0000F18242438504F0008F8888826
:101C700088887000203F2000030C30200070880806
:101C8000080838000038202121221C00180808F814
:101C9000080818000000203F2000000008F8080095
:101CA0000008F808001F202020201F000878880066
:101CB00000C83808000007380E010000F80800F8D6
:101CC0000008F800033C0700073C03000818688080
:101CD0008068180820302C03032C30200838C800F6
:101CE000C83808000000203F200000001008080845
:101CF000C83808002038262120201800000000FEE7
:101D0000020202000000007F40404000000C30C092
:101D100000000000000000010638C00000020202BE
:101D2000FE000000004040407F0000000000040270
:101D3000020204000000000000000000000000009B
:101D4000000000008080808080808080000202048B
:101D50000000000000000000000000000000808083
:101D6000808000000019242222223F2008F80080F1
:101D700080000000003F112020110E0000000080B4
:101D800080800000000E1120202011000000008043
:101D90008088F800000E112020103F200000808075
:101DA00080800000001F222222221300008080F089
:101DB000888888180020203F2020000000008080B4
:101DC00080808000006B94949493600008F80080F9
:101DD00080800000203F210000203F200080989854
:101DE000000000000020203F2020000000000080B4
:101DF0009898000000C08080807F000008F80000F4
:101E000080808000203F24022D302000000808F848
:101E1000000000000020203F202000008080808003
:101E200080808000203F20003F20003F8080008095
:101E300080800000203F210000203F2000008080A3
:101E400080800000001F202020201F008080008054
:101E50008000000080FFA12020110E000000008003
:101E600080808000000E112020A0FF8080808000F4
:101E70008080800020203F21200001000000808021
:101E8000808080000033242424241900008080E016
:101E9000808000000000001F2020000080800000E3
:101EA00000808000001F202020103F2080808000C4
:101EB0000080808000010E300806010080800080D4
:101EC000008080800F300C030C300F0000808000F9
:101ED000808080000020312E0E3120008080800024
:101EE0000080808080818E701806010000808080D4
:101EF000808080000021302C222130000000000072
:101F0000807C020200000000003F40400000000012
:101F1000FF00000000000000FF0000000002027C43
:101F2000800000000040403F00000000000601016A
:101F30000202040400000000000000000000000095
:101F40000000000000000000000000000000000091
:101F50000000000000000000000000000000000081
:101F60000000000000F0F0F00000000000000000A1
:101F700000017F010000000000000000001C1C1C8C
:101F80000000000000008060301C8C60301C0C00E1
:101F90000000000000000000000000000000000041
:101FA0000000000000000000000000E00000000051
:101FB00000E000000086E69F86868686E69F860013
:101FC00000011F01010101011F010100000080C08B
:101FD0006020F820E0C00000000003070C18FF702C
:101FE000E18100000000070F10107F100F070000B4
:101FF0008060206080000000E02000000F30203072
:102000009F70DC371030C0000000100E030007186E
:10201000101807000000C02020E0C00000000000F1
:1020200080E01F38E88703C43C040000070F181045
:10203000100B070D1010080000808C4C38000000B9
:102040000000000000000000000000000000000090
:102050000000000000000000000000000000000080
:10206000000080E0300804000000000000FEFF01D6
:1020700000000000000000000000030F18204000D6
:1020800000040830E08000000000000000000000B4
:1020900001FFFE0000000000004020180F030000B8
:1020A00000000000000000000000C0000000000070
:1020B000004266663C18FF183C666642000000005D
:1020C000000003000000000000000000000080008D
:1020D00000000000001010101010FF101010101061
:1020E00000000000000003000000000000000000ED
:1020F00000000000000000000000000000000000E0
:102100000000000000808C4C38000000000000003F
:10211000000000000000000000000000001010108F
:10212000101010101010100000000000000000003F
:10213000000000000000000000000000000000009F
:1021400000000000000000000000000000001C1C57
:102150001C00000000000000000000000000000063
:10216000E0380C000000000080701C03000000003C
:102170000060380E0100000000000000000080C078
:1021800060202060C080000000FEFF010000000011
:1021900001FFFE000001070E181010180E070100C5
:1021A0000000808080C0E00000000000000000000F
:1021B00000FFFF000000000000001010101F1F10A3
:1021C000101000000080402020202060C08000000F
:1021D00000030300804020381F070000001C1A196C
:1021E00018181818181F00000080C020202060C098
:1021F00080000000000303001010182FE78000008B
:1022000000070F10101010180F070000000000004A
:102210000000C0E0F000000000C0B088868180FFB0
:10222000FF808000000000000010101F1F10100031
:102230000000E060606060606060000000003F10CF
:1022400008080818F0E0000000070B101010101C20
:102250000F030000000080C040202020E0C00000EC
:1022600000FCFF211008080818F0E0000001070C2E
:1022700018101010080F03000000C0E060606060DC
:1022800060E06000000003000000E01807000000AC
:1022900000000000001F1F00000000000080C06060
:1022A0002020202060C080000087EF2C18183030DC
:1022B00068CF830000070F0810101010180F0700D8
:1022C0000000C0C020202020C0800000001F3F6010
:1022D0004040402010FFFE0000000C1C10101008B1
:1022E0000F030000000000000000000000000000DC
:1022F00000000000000E0E0E0000000000000000B4
:10230000001C1C1C00000000000000000000000079
:102310000000000000000000000C0C0000000000A5
:10232000000000000058380000000000000000001D
:1023300000000080402010000000102844820100AE
:10234000000000000000000000000102040810006E
:1023500000000000000000000000000000848484F1
:1023600084848484848484000000000000000000D1
:10237000000000000000102040800000000000006D
:102380000000000000000182442810000000100836
:10239000040201000000000000C0202010101010F6
:1023A00030E0C0000003030000F010080C07030039
:1023B000000000001C1C1C0000000000000000C009
:1023C000406020202040C00000FCFF01F00E03C14F
:1023D000FE03807F0001070E08111110110904028D
:1023E0000000000080E0E000000000000000807CB1
:1023F0004340477FF880000010181F1000000000C5
:10240000131F1C1020E0E02020202060C08000006E
:1024100000FFFF10101010182FE78000101F1F1072
:1024200010101010180F0700000080C0402020205E
:102430002060E00000FCFF0100000000000001003F
:102440000001070E181010100804030020E0E0201F
:1024500020202040C080000000FFFF00000000009E
:1024600001FFFE00101F1F10101018080E070100BA
:1024700020E0E020202020202060800000FFFF10CE
:102480001010107C00000000101F1F101010101002
:102490001018060020E0E02020202020606080004E
:1024A00000FFFF101010107C00000100101F1F1013
:1024B0000000000000000000000080C0602020201C
:1024C00040E0000000FCFF0100004040C0C140406F
:1024D0000001070E181010100F0F000020E0E02080
:1024E0000000000020E0E02000FFFF10101010109E
:1024F00010FFFF00101F1F1000000000101F1F1012
:102500000000202020E0E02020200000000000004B
:1025100000FFFF000000000000001010101F1F103F
:102520001010000000000000202020E0E02020200B
:1025300000000000000000FFFF0000000060E080DD
:102540008080C07F3F00000020E0E020000020A04D
:102550006020200000FFFF30187CE3C00000000076
:10256000101F1F10000001131F1C181020E0E02096
:10257000000000000000000000FFFF00000000005D
:1025800000000000101F1F1010101010101806007F
:1025900020E0E0E000000000E0E0E02000FF013F7C
:1025A000FEC0E01E01FFFF00101F1000031F03000C
:1025B000101F1F1020E0E0C0000000000020E020FD
:1025C00000FF0003071C78E08000FF00101F1000D0
:1025D00000000000030F1F00000080C0602020608A
:1025E000C080000000FEFF010000000000FFFE00B0
:1025F0000001070E181010180C07010020E0E02061
:102600002020202060C0800000FFFF20202020200C
:10261000301F0F00101F1F100000000000000000FE
:10262000000080C060202060C080000000FEFF012C
:102630000000000000FFFE000001070E1111133C16
:102640007C67210020E0E0202020202060C0800066
:1026500000FFFF101030F0D0080F0700101F1F10F0
:10266000000000030F1C10100080C06020202020FC
:102670004040E00000070F0C1818303060E0810087
:10268000001F0C0810101010180F07008060202089
:1026900020E0E020202060800100000000FFFF001B
:1026A0000000000100000000101F1F1000000000CB
:1026B00020E0E020000000000020E02000FFFF00FC
:1026C000000000000000FF0000070F18101010109D
:1026D000100807002060E0E02000000020E06020FB
:1026E0000000077FF88000807C03000000000000ED
:1026F000071F1C070000000020E0E02000E0E020B1
:102700000020E0200007FFF8E01FFFFCE01F0000B2
:102710000000031F0300011F03000000002060E011
:10272000A0000020E0602000000000038F7CF8C6BD
:10273000010000000010181E130001171F181000E0
:102740002060E0E02000000020E0602000000107A1
:102750003EF8E0180700000000000010101F1F10D6
:102760001000000000806020202020A0E0E0200079
:1027700000000000C0F03E0F0300000000101C1F0E
:1027800017101010101806000000000000FC0404D0
:10279000040404000000000000FF0000000000002E
:1027A00000000000007F404040404000000010E07A
:1027B000000000000000000000000000031C60801A
:1027C0000000000000000000000000030C7080000A
:1027D00000000404040404FC0000000000000000E9
:1027E000000000FF00000000000040404040407F2B
:1027F0000000000000000010080C040C081000008D
:1028000000000000000000000000000000000000C8
:1028100000000000000000000000000000000000B8
:1028200000000000000000000000000000000000A8
:102830008080808080808080808080800000000494
:102840000408080000000000000000000000000074
:102850000000000000000000000000000000000078
:10286000000000000000000000000000000098D8F8
:1028700044642424FCF80000000F1F1810101008F6
:102880001F1F10180020E0F00000000000000000F2
:102890000000FFFF180804040CF8F00000001F0FF0
:1028A00018101010180F03000000000000000000B6
:1028B0000000000000E0F8180404043C38000000A8
:1028C00000030F0C1010101008060000000000009C
:1028D00000000020E0F0000000E0F81C0404040800
:1028E000FFFF000000030F18101010081F0F080052
:1028F0000000000000000000000000000000E0F800
:10290000484444444C7870000000030F0C18101029
:10291000100804000000000080C0602020E0C0001B
:1029200000040404FFFF040404040000000010106D
:102930001F1F101010000000000000000000000029
:1029400000000000000070F88C04048CF874040C83
:10295000007076CF8D8D8D89C87870000020E0F0F2
:1029600000000000000000000000FFFF0804040455
:10297000FCF8000000101F1F100000101F1F1000A7
:10298000000000000060600000000000000004047F
:1029900004FCFC000000000000001010101F1F10BD
:1029A0001010000000000000000000606000000047
:1029B00000000000040404FCFC0000000000C0C093
:1029C0008080C07F3F0000000020E0F00000000099
:1029D000000000000000FFFF80C0F41C04040000A1
:1029E00000101F1F1100031F1C10100000002020EA
:1029F00020E0F000000000000000000000FFFF00E9
:102A00000000000000001010101F1F101010000028
:102A100000000000000000000000000004FCFC08B2
:102A200004FCFC0804FCFC00101F1F10001F1F10FA
:102A3000001F1F1000000000000000000000000048
:102A40000004FCFC08080404FCF8000000101F1F30
:102A5000100000101F1F1000000000000000000008
:102A60000000000000E0F0180C04040C18F0E00076
:102A700000030F0C101010100C0F030000000000DA
:102A800000000000000000000004FCFC0804040436
:102A90000CF8F0000080FFFF889010101C0F03005E
:102AA00000000000000000000000000000E0F81C32
:102AB00004040408F8FC000000030F1810109088AC
:102AC000FFFF800000000000000000000000000088
:102AD000040404FCFC100804040C0C001010101F6B
:102AE0001F10101000000000000000000000000097
:102AF0000000000000003078CCC48484840C1C00EA
:102B000000001E1810101011190F06000000000020
:102B100000C000000000000000040404FFFF0404E3
:102B200004000000000000000F1F1010100C000037
:102B30000000000000000000000000000004FCFE97
:102B400000000004FCFE000000000F1F1810100819
:102B50001F0F08000000000000000000000000003F
:102B600000040C3CFCC40000C43C0C040000000049
:102B7000010F1E0E01000000000000000000000018
:102B800000000000043CFCC400E47CFC84807C0465
:102B90000000071F070000071F07000000000000DB
:102BA00000000000000000000004041C7CE4C034AD
:102BB0001C0404000010101C1601131F1C18100028
:102BC00000000000000000000000000000040C3CB9
:102BD000FCC400C43C0404000000C080C1370E01E6
:102BE00000000000000000000000000000000000E5
:102BF00000001C0404C4F47C1C0400000000101C31
:102C00001F17111010180E0000000000000000F83F
:102C10000C04000000000000001028EF000000007D
:102C2000000000000000003F6040000000000000C5
:102C30000000FF0000000000000000000000FF0096
:102C400000000000000000000000FF000000000085
:102C50000000040CF800000000000000000000006C
:102C6000EF28100000000000000040603F0000005E
:102C7000000000000018060202040810202030089E
:102C80000000000000000000000000000000000044
:102C900000000000000000000000F010101010FF05
:102CA00010101010F000000000000F04040404FFD6
:102CB000040404040F0000004040405F5555557562
:102CC0005555555F404040000040200F0949897923
:102CD0000909090F2040000000FE02424ACA4A4A80
:102CE000CA4A4A4202FE000000FF40504C434040A6
:102CF0004F50505C40FF00000000F888888888FF33
:102D000088888888F800000000001F080808087FED
:102D1000888888889F80F00080828282828282E216
:102D2000A2928A8682808000000000000040807F9E
:102D30000000000000000000101010FF1090088834
:102D40008888FF88888808000444827F018080404A
:102D5000432C1028468180000010101010D030FF46
:102D600030D0121C1010000010080402010000FFF7
:102D7000000001020408100004040484E43C272439
:102D8000242424E40404040004020100FF090909C6
:102D90000949897F0000000000FE225A8600FE9249
:102DA00092929292FE00000000FF04080700FF408C
:102DB00020030C14224140000080402018068000AF
:102DC00007182040800000000100207028262120E4
:102DD0002024386000010100001012929292929219
:102DE00092121202FE0000000000003F10101010AE
:102DF0003F0040807F000000000000C08080808095
:102E0000808080FC84808080808080C0C000000042
:102E1000000000FF7F404040404040FF40404040B5
:102E2000404040FF7F000000000000000000000064
:102E30000000007F700000000000000000000000A3
:102E4000000000000000000000000000000000FC86
:102E5000F80000000000000000000000000000007A
:102E600000000000FFFE020202020202020202FF54
:102E7000FF020202020202020202FF03000000003F
:102E8000000000001F1F040404040404040404FFE1
:102E9000FF0404040404040404041F0000000000F0
:102EA0000000000000000000000000000000007FA3
:102EB0003F000000000000000000000000000000D3
:102EC0000000000000000000000000000000000002
:102ED00000000000000000000000000000F8F8F012
:102EE000F070200000000000000000000000000062
:102EF00000000000000000000000000000000000D2
:102F00000000000000000000800000000000000041
:102F100000000000000000000000000000FFFFFFB4
:102F2000FF000000000000000000000000000000A2
:102F30000000000080800000000000000000000091
:102F4000000000000000000000FFFFFE060606066D
:102F500006060606060606060606060606FFFFFF26
:102F6000FF06060606060606060606060606060608
:102F7000060606FFFFFFFF0702000000000000003A
:102F8000000000000000000000FFFFFF0000000044
:102F900000000000000000000000000000FFFFFF34
:102FA000FF00000000000000000000000000000022
:102FB000000000FFFFFFFF00000000000000000015
:102FC000000000000000000000FFFFFF18181818A4
:102FD00018181818181818181818181818FFFFFFBC
:102FE000FF1818181818181818181818181818187A
:102FF000181818FFFFFFFF0000000000000000008D
:1030000000000000000000000201010000000000BC
:1030100000000000000000000000000000FFFFFFB3
:10302000FF000000000000000000000000000000A1
:10303000000000010100000000000000000000008E
:103040000000000000000000000000000000000080
:1030500000000000000000000000000000FFFFFF73
:10306000FF00000000000000000000000000000061
:103070000000000000000000000000000000000050
:103080000000000000000000000000000000000040
:10309000000000000000000000000000001F1F0FE3
:1030A0000F00000000000000000000000000000011
:1030B0000000000000000000000000000000000010
:1030C000FFFF0101C9C9C9C90101FFFFFFFFFFFFE0
:1030D00007E78FE707FF0777777707FF77077777A8
:1030E00007FF0757575777FFFFFF01010101010154
:1030F000C1C1C1C1C1C101C1C10101C1C101C1C1C0
:103100000101010101C1C10101010101010101012F
:10311000FFFFFFFF07575717FF07777707FF877FE7
:103120008F7F87FFFFFFFF0101797979797979FF37
:10313000FF0909494949494143FFFFFFFFFFFFFFDD
:10314000070707070707070707070747C7C7C7C7CF
:10315000C7C7C7C7C7C7C7C7C7C7C7C7C7C7C7C7FF
:10316000C7C7C7C7C7C7C7C7C7C7C7C7C7C7C7C7EF
:10317000C7C7C7C7C7C7C7C7C7C7C7C7C7C7C7C7DF
:10318000C7C7C7C7C7C7C7C7C7C7C7C7C7C7C7C7CF
:10319000C7C7C7C7C7C7C7C7C7C7C7C7C7C7C7C7BF
:1031A000C7C7C7C7C7C7C7C7C7C7C7C7470707076F
:1031B0000707070707070707FFFF636362E2C30309
:1031C000E3E3626263636303E3E3636363E3E30391
:1031D00003030383E333038383030383838303832F
:1031E000838303FF0000000000003F3F0C0C0C0035
:1031F000003F3F30303F3F003F3F30303030003FF6
:103200003F303030300000000000FF030303036351
:1032100063E3E3030303E3E3636363E3E3030303BE
:103220000302E2E2626262E2E203E3E202C2C2029B
:10323000E2E20203030303FFFFFF000000000000BF
:10324000FEFCFCF8F8F0F0E1C1C38387070F1F1FF5
:103250003F3F7FFFFFFFFFFFFFFFFFFFFFFFFFFF7E
:10326000FFFFFFFFFFFFFFFFFFFFFFFFFFFFFFFF6E
:10327000FFFFFFFFFFFFFFFFFFFFFFFFFFFFFFFF5E
:10328000FFFFFFFFFFFFFFFFFFFFFFFFFFFFFFFF4E
:10329000FFFFFFFFFFFFFFFFFF7F3F3F1F1F0F07E6
:1032A0008783C3C1E1F0F0F8F8FCFCFE00000000E9
:1032B0000000FFFF1B1B1B1B1B001B1B1B1B1B1FE3
:1032C0000F001F1F1818181F1F0060380E03000082
:1032D000000E0A0B000F0A0E000F080F00FF00007F
:1032E00000000000000000F808E8E8E8E8E8E8E886
:1032F000E8E8E8E8E8E8E8E8E808F80000000000A6
:1033000000000000FF0000001818181F1F18180008
:103310001F1F1818181F1F00181818001F1F181833
:10332000181F1F00071F180F0F181F0700000000AD
:1033300000FFFFFF000000000000FFFFFFFFFFFF96
:10334000FFFFFFFFFFFFFFFFFEFCFCF8F8F0E0E1EE
:10335000C1C383870F0F1F1F3F3F7FFFFFFFFFFF8B
:10336000FFFFFFFFFFFFFFFFFFFFFFFFFFFFFFFF6D
:10337000FFFFFFFFFFFFFFFFFFFFFFFFFFFFFFFF5D
:10338000FFFFFFFFFF7F3F3F1F1F0F0F8783C3C15B
:10339000E1E0F0F8F8FCFCFEFFFFFFFFFFFFFFFF9E
:1033A000FFFFFFFFFFFF000000000000FFFF000025
:1033B00000000002023E0202003E2222223E0002E3
:1033C000023E0202003C0A0A0A3C003E2020200085
:1033D00000000000000000FF0000000000000000EE
:1033E00000FF00BDBDBDBDBDBDBDBDBDBDBDBDBD45
:1033F000BDBDBD00FF000000000000000000FF0098
:1034000000000000001715150D0010001F11111FFE
:103410000007081008070000001D15151600100011
:103420001F11111F001E0505051E00FFFFFF0000F4
:1034300000000000FFFFFFFFFFFFFFFFFFFFFFFF98
:10344000FFFFFFFFFFFFFFFFFFFFFFFFFFFFFFFE8D
:10345000FE7C7C3838100001018387070F0F1F1F87
:103460003F7F7FFFFFFFFFFFFFFFFFFFFFFFFFFF2C
:10347000FF7F7F3F1F1F0F0F078783010100103859
:10348000387C7CFEFEFFFFFFFFFFFFFFFFFFFFFF1B
:10349000FFFFFFFFFFFFFFFFFFFFFFFFFFFFFFFF3C
:1034A000000000000000FFFFFF01017979797979C0
:1034B00079FFFF7F79797901017F7FFFFFFFF707B0
:1034C000FF07777707FF07777707FF877F8F7F876C
:1034D000FFFF000000000000000000FF00F7F7F70A
:1034E000F7F7F7F7F7F7F7F7F7F7F7F7F700FF0052
:1034F0000000000000000000FFFFFFFFFF077777DC
:1035000007FF07D7D7F7FF07D7D7F7FFFFFFFF0161
:1035100001C9C9C9C90101FFFF7F79797901017F1B
:103520007FFFFFFFFFFFFFFF000000000000FFFF25
:10353000FFFFFFFFFFFFFFFFFFFFFFFFFF7F7F3F5B
:103540003F1F0F0F078783C3E1E0F0F0F8F8FCFEA0
:10355000FEFFFFFFFFFFFFFEFEFCFCF8F8F0F0E1CE
:10356000E1E1E3E3E3E3E1E1E1F0F0F8F8FCFCFEA4
:10357000FEFFFFFFFFFFFFFEFEFCF8F8F0F0E0E1CA
:10358000C38387070F0F1F3F3F7F7FFFFFFFFFFFB3
:10359000FFFFFFFFFFFFFFFFFFFF00000000000035
:1035A000FFFFE3E20202C2C20202E2E3636262E2FE
:1035B000E202020202E3E3636363E3E303E3E303A0
:1035C000C3C303E3E3030303030303FF000000009B
:1035D0000000000000FF405E5E5E5E5E5E5E5E5E5E
:1035E0005E5E5E5E5E5E5E40FF000000000000000A
:1035F0000000FF030303E3E3636363E3E303E3E345
:10360000636363E3E303030303E2E2636363E3E20D
:1036100002E3E302C2C202E2E2020203030303FF87
:10362000FFFF000000000000FF7F7F3F3F1F1F0FD4
:10363000078783C3C1E0F0F0F8F8FCFEFEFFFFFF50
:10364000FFFFFFFFFFFFFFFFFFFFFFFFFFFFFFFF8A
:10365000FFFFFFFFFFFFFFFFFFFFFFFFFFFFFFFF7A
:10366000FFFFFFFFFFFFFFFFFFFFFFFFFFFFFFFF6A
:10367000FFFFFFFFFFFFFFFFFFFFFFFFFFFFFFFE5B
:10368000FEFCF8F8F0F0E0C1C38387070F1F1F3F6F
:103690003F7F7FFF000000000000FFFF07070606D6
:1036A0001F1F06001F1F1818181F1F001818001FC3
:1036B0001F1818181F1F00071F180F0F181F0700CB
:1036C0000000000000FF0000000000FEFFFFC0DF60
:1036D000D0D1D0D1D0D1D0D1D0D0D0D0D0D0D0D0E6
:1036E000D0D0DFC0FFFFFE0000000000FF000000A0
:1036F0001F1F1818181F1F001F1F1818181F1F0042
:103700001818001F1F1818181F1F00071F180F0F69
:10371000181F07000000000000FFFFFFC0C0C0C06E
:10372000C0C0C0C0C0C0C0C4C6C7C7C7C7C7C7C75E
:10373000C7C7C7C7C7C7C7C7C7C7C7C7C7C7C7C719
:10374000C7C7C7C7C7C7C7C7C7C7C7C7C7C7C7C709
:10375000C7C7C7C7C7C7C7C7C7C7C7C7C7C7C7C7F9
:10376000C7C7C7C7C7C7C7C7C7C7C7C7C7C7C7C7E9
:10377000C7C7C7C7C7C7C7C7C7C7C7C7C7C7C7C7D9
:10378000C7C7C7C7C7C7C7C6C4C0C0C0C0C0C0C0FE
:10379000C0C0C0C0FFFF1516001F11111F00100090
:1037A0001F11111F0007081008070000001D151544
:1037B000160010001F11111F001E0505051E00FF39
:1037C00080808080808183838383838383838383DA
:1037D00083838383838383838383838383838383B9
:1037E000818080808080FF001F11111F001F111138
:1037F0001F0010001F11111F00070810080700000C
:10380000001F11111F0010001F11111F001E0505C0
:10381000051E00FFFF0707272727270707FFFFFFD2
:10382000FFFFFF1F9F3F9F1FFF1FDFDFDF1FFFDF28
:103830001FDFDF1FFF1F5F5F5FDFFFFFFF07070760
:103840000707070707070707070707070707070708
:1038500007070707070707070707070707070707F8
:10386000070707FFFFFFFF1F5F5F5FFF1FDFDF1F10
:10387000FF1FFF3FFF1FFFFFFFFF0707E7E7E7E728
:10388000E7E7FFFF272727272727070FFFFFFFFF70
:10389000FFFFFFFFFFFFFFFFFFFFFFFFFFFFFFFF38
:1038A000FFFFFFFFFFFFFFFFFFFFFFFFFFFFFFFF28
:1038B000FFFFFFFFFFFFFFFFFFFFFFFFFFFFFFFF18
:1038C000FFFFFFFFFFFFFFFFFFFFFFFFFFFFFFFF08
:1038D000FFFFFFFFFFFFFFFFFFFFFFFFFFFFFFFFF8
:1038E000FFFFFFFFFFFFFFFFFFFFFFFFFFFFFFFFE8
:1038F000FFFFFFFFFFFFFFFFFFFFFFFFFFFFFFFFD8
:10390000FFFFFFFFFFFFFFFFFFFF0F8F8F8F8F88EE
:10391000880F0F8F8F88888F8F8F0F8F8F8C8F8E50
:103920008F8C0F0C0D0D0D8CCF0D0C0D0D0C0F0C85
:103930000D0D0D0D0F0FFF000000C0C3C3FFFFC032
:10394000C000DFDFDBDBDBFB7B00FFFFC3C3C3FFAC
:10395000FF003FFFC07E7EC0FF3F000000FF0F0F53
:103960000F0C8D8D8C8F0C0D0D8C8F8E8D8E8D8E02
:103970000F0F0F0F08888989898989890F8F880817
:103980000909098989090F0F0F0FFFFFFFFFFFFFCB
:10399000FFFFFFFFFFFFFFFFFF7F7F3F3F1F1F0F67
:1039A0000F0707030307070F0F1F1F3F3F7F7F7F8F
:1039B000FFFFFFFFFF7F7F3F3F1F1F0F0F0707071F
:1039C000030307070F0F1F1F3F3F7F7FFFFFFFFF0F
:1039D000FFFF7F3F3F3F1F1F0F0F0707030307072F
:1039E0000F0F1F1F3F3F7F7FFFFFFFFFFFFFFFFF07
:1039F000FFFFFFFFFFFFFFFFFFFFFFFFFFFFFFFFD7
:103A0000FFFFFFFF007D7D6D6D6D6F6F006F6F6D50
:103A10006D6D7D3D007F7F6161617F7F0080E0385B
:103A20000E0300003A2A2C003E2A3A003E223E00B5
:103A3000FF000000000000000000E0202020202007
:103A400020202020202020202020202020E00000F6
:103A500000000000000000FF0000006061617F7F47
:103A60006060007F7F6161617F7F00606060007FD8
:103A70007F6161617F7F001F7F603F3F607F1F002C
:103A800000000000FFFFFFFFFFFFFFFFFFFFFFFF42
:103A9000FFFCFCF8F8F8F0F0E0E0C0C08000008027
:103AA00080C0C0E0E0F0F0F8F8FCFCFEFFFEFCFC9B
:103AB000F8F8F0F0E0E0C0C08080008080C0C0E096
:103AC000E0F0F0F8F8FCFCFEFFFEFCFCF8F8F0F08B
:103AD000E0E0C0C08080000080C0C0E0E0F0F0F016
:103AE000F8F8FCFCFFFFFFFFFFFFFFFFFFFFFFFFFA
:103AF000FFFFFFFFFFFFFFFFFFFFFFFFFFFF0000D4
:103B00000000000000000808F8080800F88888880D
:103B1000F8000808F8080801F0282828F000F880C4
:103B200080800000000000000000FF000000000096
:103B300000000000FF000000000000000000000086
:103B400000000000000000FF000000000000000076
:103B500000FF0000000000005C5454340040007C72
:103B600044447C001C2040201C0000007454545825
:103B70000040007C44447C00781414147800FFFF5B
:103B8000FFFFFFFFFFFFFFFFFFFFFFBF1F1F0F0F25
:103B900007070303010100000000010103030707F9
:103BA0000F0F1F1F3FBFFFBF1F1F0F0F070703038D
:103BB000030101000000010103030707070F0F1FA6
:103BC0001FBFFFBF3F1F1F0F0F07070303010100A8
:103BD0000000000101030307070F0F1F1FBFFFFFB6
:103BE000FFFFFFFFFFFFFFFFFFFFFFFFFFFFFFFFE5
:103BF000FFFFFFFFFFFFFFFFFCFCFCFC0404E4E40D
:103C0000E4E4E4E4FCFCFCE4E4E40404FCFCFCFC8C
:103C1000FCDC1CFC1CDCDC1CFC1CDCDC1CFC1CFCC4
:103C20003CFC1CFCFF000000000000000000FF0046
:103C3000DEDEDEDEDEDEDEDEDEDEDEDEDEDEDEDEA4
:103C400000FF000000000000000000FFFCFCFCFC86
:103C50001CDCDC1CFC1C5C5CDCFC1C5C5CDCFCFC24
:103C6000FCFC0404242424240404FCFCFCE4E4E41C
:103C70000404FCFCFCFCFCFCFFFFFFFFFFFFFFFF5C
:103C8000FFFFFFFFFFFFFFFFFEFEFCFCF8F8707078
:103C900020000020307078F8FCFCFEFEFFFFFFFFE4
:103CA000FFFFFFFFFEFEFCFCF8F8707020200020F4
:103CB000207070F8F8FCFCFEFEFFFFFFFFFFFFFF27
:103CC000FFFEFEFCFCF8787030200000207070F8D9
:103CD000F8FCFCFEFEFFFFFFFFFFFFFFFFFFFFFF03
:103CE000FFFFFFFFFFFFFFFFFFFFFFFFFFFFFFFFE4
:103CF000FFFF0F0F0F8F88080909090909898F8FA6
:103D000089898989080809098F8F8F8F8C8F8C0D7D
:103D10008D8C0F0C0D0D8C8F0E0D0E0D0E0FFF00E8
:103D20000000000000000000FF007B7B7B7B7B7BB2
:103D30007B7B7B7B7B7B7B7B7B7B00FF00000000B6
:103D40000000000000FF0F0F0F8F8C8D8D8C8F8C6B
:103D50000F8F8F8F8C8F8F8F0F0F0F0F88888F8F04
:103D60008F8F88088F8F09090909888809090F0F23
:103D70000F0FFFFFFFFFFFFFFFFFFFFFFFFFFFE74B
:103D8000E7C3C381810100000000000000000000C3
:103D90000000008181C3C3E7E7EFFFEFE7C7C383FC
:103DA0008101000000000000000000000000000190
:103DB0008183C3C7E7EFFFEFE7C7C3C3818100007B
:103DC0000000000000000000000000018181C3C36A
:103DD000E7E7FFFFFFFFFFFFFFFFFFFFFFFFFFFF23
:103DE000FFFFFFFFFFFFFFFFFFFFFFFF0000001FC0
:103DF0001F18187F7F18007F7F6161617F7F0060DF
:103E000060007F7F6161617F7F001F7F603F3F6057
:103E10007F1F000000000000FF0000000000F8FC11
:103E2000FC007F41454145414541454141414141BA
:103E300041414141417F00FCFCF80000000000FFCF
:103E40000000007F7F6161617F7F007F7F61616132
:103E50007F7F006060007F7F6161617F7F001F7FE7
:103E6000603F3F607F1F000000000000FFFFFFFF7A
:103E7000FFFFFFFFFFFFFFFFFFFFFFFFFFFFFFFF52
:103E8000FFFEFEFCFCF8F8FCFCFEFEFFFFFFFFFF60
:103E9000FFFFFFFFFFFFFFFFFFFFFFFFFFFEFEFC37
:103EA000FCF8F8F8FCFCFEFEFFFFFFFFFFFFFFFF42
:103EB000FFFFFFFFFFFFFFFFFFFFFEFEFCFCF8F828
:103EC000FCFCFEFEFFFFFFFFFFFFFFFFFFFFFFFF0A
:103ED000FFFFFFFFFFFFFFFFFFFFFFFFFFFFFFFFF2
:103EE000FFFFFFFFFFFF0074545458007C44447CE4
:103EF0000040007C44447C001C2040201C0000004A
:103F0000745454580040007C44447C0078141414C9
:103F10007800FF0000000000070F0F0F0F0F0F0FBA
:103F20000F0F0F0F0F0F0F0F0F0F0F0F0F0F0F0FA1
:103F30000F0F0F070000000000FF007C44447C00CE
:103F40007C44447C0040007C44447C001C20402095
:103F50001C0000007C44447C0040007C44447C0005
:103F6000781414147800FFFFFFFFFFFFFFFFFFFF2F
:103F7000FFFFFFFFFFFFFFFFFFFFFFFFFFFFFFFF51
:103F8000FFFFFFFFFFFFFFFFFFFFFFFFFFFFFFFF41
:103F9000FFFFFFFFFFFFFFFFFFFFFFFFFFFFFFFF31
:103FA000FFFFFFFFFFFFFFFFFFFFFFFFFFFFFFFF21
:103FB000FFFFFFFFFFFFFFFFFFFFFFFFFFFFFFFF11
:103FC000FFFFFFFFFFFFFFFFFFFFFFFFFFFFFFFF01
:103FD000FFFFFFFFFFFFFFFFFFFFFFFFFFFFFFFFF1
:103FE000FCFCFCFCFCFCFCFCFCFCFCFCFCFCFCFC11
:103FF000FCFCFCFCFCFCFCFCFCFCFCFCFCFCFCFC01
:10400000FCFCFCFCFCFCFCFCFCFCFCFCFFFEFEFEE7
:10401000FEFEFEFEFEFEFEFEFEFEFEFEFEFEFEFEC0
:10402000FEFEFEFEFEFEFEFEFEFEFEFEFEFEFEFEB0
:10403000FEFEFEFFFCFCFCFCFCFCFCFCFCFCFCFCB7
:10404000FCFCFCFCFCFCFCFCFCFCFCFCFCFCFCFCB0
:10405000FCFCFCFCFCFCFCFCFCFCFCFCFCFCFCFCA0
:10406000FFFFFFFFFFFFFFFFFFFFFFFFFFFFFFFF60
:10407000FFFFFFFFFFFFFFFFFFFFFFFFFFFFFFFF50
:10408000FFFFFFFFFFFFFFFFFFFFFFFFFFFFFFFF40
:10409000FFFFFFFFFFFFFFFFFFFFFFFFFFFFFFFF30
:1040A000FFFFFFFFFFFFFFFFFFFFFFFFFFFFFFFF20
:1040B000FFFFFFFFFFFFFFFFFFFFFF0F0F0F0F0FC0
:1040C0000F0F0F0F0F0F0F0F0F0F0F0F0F0F0F0F00
:1040D0000F0F0F0F0F0F0F0F0F0F0F0F0F0F0F0FF0
:1040E0000F0F0F0FFFFFFFFFFFFFFF0F0F0F0F0F50
:1040F0000F0F0F0F0F0F0F0FFFFFFFFFFFFFFFFF50
:10410000FFFFFFFFFFFFFFFFFFFFFFFFFFFFFFFFBF
:10411000FFFFFFFFFFFFFFFFFFFFFFFFFFFFFFFFAF
:10412000FFFFFFFFFFFFFFFFFFFFFFFFFFFFFFFF9F
:10413000FFFFFFFFFFFFFFFFFFFFFFFFFFFFFFFF8F
:10414000FFFFFFFFFFFFFFFFFFFFFFFFFFFFFFFF7F
:10415000FFFFFFFFFFFFFFFFFFFFFFFFFFFFFFFF6F
:10416000CF0F0F0FCFCFCFCF8F8F0F3FFFFFFFFFAF
:10417000FFFFFFFFFFFFFFFFFFFFFFCFCFCF0F0FBF
:104180000FCFCFCFFFFFFFCF0F0F0F3FFFCFCF0FCF
:104190000FCFCF0F0F0FCFFF0F0F0F8FCFFFFFFFEF
:1041A000FFFFFFFFFFFFFFFFFFFFFFFFFFFFFFFF1F
:1041B000FFFFFFFFFF000000000000000000000004
:1041C00000000000000000000000000000000000EF
:1041D0000000000000000000000000000000FFFFE1
:1041E000FFFFFFFFFF0000000000000000000000D4
:1041F0000000FFFFFFFFFFFFFF9F1F1F1F9F9F9FED
:104200009F1F1F1F7FFFFFFFFFFFFFFFFFFFFFFF3E
:10421000FFFF9F1F1F1F9F9F9F9F1F3F3F7FFFFF0E
:10422000FFFF7F1F1F1FFFFFFFFFFF9F1F1F1F9F1E
:104230009F9F9F1F3F3F7FFF9F1F1F1F9F9F9F9F0E
:104240001F1F1F7F9F1F1F1F9F9F9F9F1F1F3F7F1E
:10425000FFFFFFFFFFFFFFFFFFFFFF000000E7E79B
:10426000E70101FFFEFEFFFFE7E7E7E7E7E7E7E734
:10427000E7E7E7FFFFFFFFFF000000FFFFFFFFFF93
:10428000FFFF0000F8E080031F0000FFFF000000B8
:10429000C1C0000E3FFFFFFFFFFFFFFFFFFFFFFF5B
:1042A000FFFFFFFFFFFFFFFFFFFFFFFFFFFFFF001D
:1042B000000000000000000000000000FEFEFEFE06
:1042C000FEFEFEFEFEFEFEFEFEFEFE000000000004
:1042D0000000000000000000FFFFFFFFFFFFFF7E67
:1042E0007E7E7E7E7E7E7E7E7E7E7E7EFFFFFFFFEA
:1042F000FFFFFFFF000000CFCFCF0303FFFCFCFF59
:10430000CFCFCFCFCFCFCFCFCFCFCFFFFF000000CA
:104310009F9F9F8F8FC0C0E0FFFF7F0700303C0052
:10432000000F7FFFFFFF0000009F9F9F8F8FC0C087
:10433000E0FFFF000000CFCFCF0303FFFCFCFF0036
:104340000000CFCF0F0F07E0E0F0FFFFFFFFFFFF00
:10435000FFFFFFFFE7E0E0E0E7E7E7E7E7E3E0F89C
:10436000FFFFFFFFFFFFFFFFFFFFFFFFFFFFFFE775
:10437000E7E7E0E0E0E7E7E7FFFFE7E7E0E0E7E7C0
:10438000FFFCF0E0E0FFE7E0E0E0E7FFFFE4E0E073
:10439000E3E7FFFFFFFFFFFFFFFFFFFFFFFFFFFF61
:1043A000FFFFFFFFFFFFFFFFFF3E1E1E1E1E1E1E24
:1043B0001E1E1E1E1E1E1F1F1F1F1F1F1F1F1F1F13
:1043C0001F1F1F1F1F000000000000000000000052
:1043D0000000FFFFFFFFFFFFFF00000000000000E4
:1043E000000000000000FFFFFFFFFFFFFFCFC0C085
:1043F000C0CFCFCFCECEC7C1F1FFFFFFFFFFFFFF82
:10440000FFFFFFFFFFCFCFC0C0C0CFCFFFFFFFFF39
:10441000FFFFCFC3C0C8CFFFFFFFCCC0C0C7CFCF07
:10442000C0C0C0CFCFFFFFFFFFFFFFFFCFC0C0C0A6
:10443000CFCFCFCECEC7C1F1CFC0C0C0CFFFFFFC22
:10444000F0C0C1C7CFFFFFFFFFFFFFFFFFFFFFFF70
:10445000FFFFFFFFFFFFFFFFFFFFFFFFFFFFFFFF6C
:10446000FFFFFFFFFFFFFFFFFFFFFFFFFFFFFFFF5C
:10447000FFFFFFFFFFFFFFFFFFFFFFFFFFFFFFFF4C
:10448000FFFFFFFFFFFFFFFFFFFFFFFFFFFFFFFF3C
:10449000FFFFFFFFFFFFFFFFFFFFFFFFFFFFFFFF2C
:1044A000FFFFFF000000000000000000000000000F
:1044B00000000000000000000000000000000000FC
:1044C000000000000000000000000000FFFFFFFFF0
:1044D000FFFFFF00000000000000000000000000DF
:1044E000FFFFFFFFFFFFFFFFFFFFFFFFFFFFFFFFDC
:1044F000FFFFFFFFFFFFFFFFFFFFFFFFFFFFFFFFCC
:10450000FFFFFFFFFFFFFFFFFFFFFFFFFFFFFFFFBB
:10451000FFFFFFFFFFFFFFFFFFFFFFFFFFFFFFFFAB
:10452000FFFFFFFFFFFFFFFFFFFFFFFFFFFFFFFF9B
:10453000FFFFFFFFFFFFFFFFFFFFFFFFFFFFFFFF8B
:10454000FFFFFFFFFFFFFFFFFFFFFFFFFFFFFFFF7B
:10455000FFFFFFFFFFFFFFFFFFFFFFFFFFFFFFFF6B
:10456000FFFFFFFFFFFFFFFFFFFFFFFFFFFFFFFF5B
:10457000FFFFFFFFFFFFFFFFFFFFFFFFFFFFFFFF4B
:10458000FFFFFFFFFFFFFFFFFFFFFFFFFFFFFFFF3B
:10459000FFFFFFFFFFFFFFFFFFFFFFFFFF00000028
:1045A00000000000000000000000F8F8F8F8F8F83B
:1045B000F8F8F8F8F8F8F8F8F8F8F8F8F8F8F8F87B
:1045C000F8F8F8F8F8F8FFFFFFFFFFFFFF00000022
:1045D00000000000000000000000FFFFFFFFFFFFE1
:1045E000FFFFFFFFFFFFFFFFFFFFFFFFFFFFFFFFDB
:1045F000FFFFFFFFFFFFFFFFFFFFFFFFFFFFFFFFCB
:10460000FFFFFFFFFFFFFFFFFFFFFFFFFFFFFFFFBA
:10461000FFFFFFFFFFFFFFFFFFFFFFFFFFFFFFFFAA
:10462000FFFFFFFFFFFFFFFFFFFFFFFFFFFFFFFF9A
:10463000FFFFFFFFFFFFFFFFFFFFFFFFFFFFFFFF8A
:10464000FFFFFFFFFFFFFFFFFFFFFFFFFFFFFFFF7A
:10465000FFFFFFFFFFFFFFFFFFFFFFFFFFFFFFFF6A
:10466000FFFFFFFFFFFFFFFFFFFFFFFFFFFFFFFF5A
:10467000FFFFFFFFFFFFFFFFFFFFFFFFFFFFFFFF4A
:10468000FFFFFFFFFFFFFFFFFFFFFFFFFFFFFFFF3A
:10469000FFFFFFFFFFFFFF00000000000000000021
:1046A00000000000070707070707070707070707B6
:1046B000070707070707070707070707070707078A
:1046C00007070707070707000000000000000000B9
:1046D00000000000FFFFFFFFFFFFFFFFFFFFFFFFE6
:1046E000FFFFFFFFFFFFFFFFFFFFFFFFFFFFFFFFDA
:1046F000FFFFFFFFFFFFFFFFFFFFFFFFFFFFFFFFCA
:10470000FFFFFFFFFFFFFFFFFFFFFFFFFFFFFFFFB9
:10471000FFFFFFFFFFFFFFFFFFFFFFFFFFFFFFFFA9
:10472000FFFFFFFFFFFFFFFFFFFFFFFFFFFFFFFF99
:10473000FFFFFFFFFFFFFFFFFFFFFFFFFFFFFFFF89
:10474000FFFFFFFFFFFFFFFFFFFFFFFFFFFFFFFF79
:10475000FFFFFFFFFFFFFFFFFFFFFFFFFFFFFFFF69
:10476000FFFFFFFFFFFFFFFFFFFFFFFFFFFFFFFF59
:10477000FFFFFFFFFFFFFFFFFFFFFFFFFFFFFFFF49
:10478000FFFFFFFFFFFFFFFFFFFFFFFFFFFFFFFF39
:10479000FF0000000000000000000000000000001A
:1047A0000000000000000000000000000000000009
:1047B00000000000000000000000000000000000F9
:1047C0000000000000000000000000000000FFFFEB
:1047D000FFFFFFFFFFFFFFFFFFFFFFFFFFFFFFFFE9
:1047E000FFFFFFFFFFFFFFFFFFFFFFFFFFFFFFFFD9
:1047F000FFFFFFFFFFFFFFFFFFFFFFFFFFFFFFFFC9
:10480000FFFFFFFFFFFFFFFFFFFFFFFFFFFFFFFFB8
:10481000FFFFFFFFFFFFFFFFFFFFFFFFFFFFFFFFA8
:10482000FFFFFFFFFFFFFFFFFFFFFFFFFFFFFFFF98
:10483000FFFFFFFFFFFFFFFFFFFFFFFFFFFFFFFF88
:10484000FFFFFFFFFFFFFFFFFFFFFFFFFFFFFFFF78
:10485000FFFFFFFFFFFFFFFFFFFFFFFFFFFFFFFF68
:10486000FFFFFF3F3FBFBFBF3F3F3FFFFFBF3F3F98
:104870003FBFFFFFBF3F3F3FBFFFFFFFFF7F7FBF48
:10488000BFBF7F7FFFFFFFFFBF3F3F3F7FFFFFFFB8
:10489000BF3F3FBFFFFFFF7F7F3FBFBFBF7F7F7F28
:1048A000FFFFFFFFFFFFBF3F3F3FBFFFFFBF3F3F98
:1048B0003F3FBFFFFFBF3F3F3F7FFFFFFFBF3F3F88
:1048C000BFFFFFFF7F7F3FBFBFBF7F7FFFFFFFBFF8
:1048D0003F3F3FBFFFFFBF3FBFFFFFBF3F3F3FBF68
:1048E000FFFFFFBF3F3FFFFFFFFFFFFF3F3FFFFF18
:1048F000FFFFFFFFFFBF3F3F3FFFFFFFFFBF3F3F08
:10490000FFFFFFFFFFFFFFFFFFFFFFFFFFFFFFFFB7
:10491000FFFFFFFFFFFFFFFFFFFFFFFFFFFFFFFFA7
:10492000FFFFFFFFFFFFFFFFFFFFFFFFFFFFFFFF97
:10493000FFFFFFFFFFFFFFFFFFFFFFFFFFFFFFFF87
:10494000FFFFFFFFFFFFFFFFFFFFFFFFFFFFFFFF77
:10495000FFFFFFFFFFFFFFFFFFFFFFFFFC7E1F07C3
:1049600083E0F0FC3FFFFFFF000000F7F7F7F700E0
:104970000000FFFFFF810000FFFFFFFFFF0000813D
:10498000FFFFFF00FCFCF0E183071F1DD2FFFFC704
:1049900001003CFFFFEFCF0F0C0DEFFF3F3F3FFF4C
:1049A000FF000000FFFFFFFFFF0000FFFFFFFFFF12
:1049B00000FCF8F0E1830F1F00FFFFFFC700003C81
:1049C000FFFFEFCF0F0C4FEFFFFFFEF8E00107E70F
:1049D000F9FEFFFFFFFF000000FFFFFFFFFF00FFEA
:1049E000FFFF7F1FC7D8D8C001071FFFFFFFFFFFD2
:1049F00000FCF8F0C1870F1F00FFFFFFFFFFFFFF64
:104A0000FFFFFFFFFFFFFFFFFFFFFFFFFFFFFFFFB6
:104A1000FFFFFFFFFFFFFFFFFFFFFFFFFFFFFFFFA6
:104A2000FFFFFFFFFFFFFFFFFFFFDFDFDFDF9F9FD6
:104A30009F9F1F0F0F0F0F0F0F0F0F0F0F0F0F0F56
:104A40000F0F0F0F0707070707070707070F0F0FBE
:104A50001F1F1F1F3F3F3C7C7C7CFDFDFDFCFCFFBE
:104A6000FFFDFCFCFCFDFFFFFDFCFCFCFDFFFFFF70
:104A7000FFFEFCFDFDFDFCFEFEFFFFFFFDFCFCFD5F
:104A8000FFFFFFFFFEFCFFFFFFFFFFFEFEFCFDFD43
:104A9000FCFCFEFCFFFFFEFEFDFDFDFCFCFFFFFF3E
:104AA000FFFDFCFCFCFCFDFFFFFD7C7D7D7FFFFF2F
:104AB000FFFCFCFFFFFFFFFFFEFCFDFDFDFCFEFC1D
:104AC000FEFFFFFFFFFDFDFCFCFDFDFFFFFFFFFF05
:104AD000FFFEFCFCFDFDFDFEFFFFFFFDFCFDFDFFFD
:104AE000FFFFFDFCFCFCFDFFFFFDFCFDFDFFFFFFEC
:104AF000FFFCFCFFFFFFFFFFFFFFFFFFFFFFFFFFCC
:104B0000FFFFFFFFFFFFFFFFFFFFFFFFFFFFFFFFB5
:104B1000FFFFFFFFFFFFFFFFFFFFFFFFFFFFFFFFA5
:104B2000FFFFFFFFFFFFFFFFFFFFFFFFFFFFFFFE96
:104B3000FEFEFEFCFCFCF8F8F8F8F0F0F0F0E0E027
:104B4000E0C0C0C0C0808080808080808080808005
:104B5000808080C0C0C0C0C1C1C1C3C3C3C3C7C7F8
:104B6000C7C7C7E7E7E7E7E7E7E7E7E7E7E7E3E33D
:104B7000E3E3E3E3F3F3F3F3F3F3F3F3F3F3F3F345
:104B8000F1F1F1F1F9F9F9F9F9F9F9F9F9F9F9F9B5
:104B9000F9F1F0F0E0E0E0C0C0C0C080808000002B
:104BA00000000000000000000000000101010303FC
:104BB00003030707070F0F0F0F1F1F1F3F3F3F3F45
:104BC0007F7F7F7F7F7F7F7F7F7F7F3F3F3F3F3F35
:104BD0003F3F3F3F3F3F3F3F3F3F3F3F1F1F1F1F65
:104BE0001F1F1F1F1F1F1F1F1F1F1F1F1F1F0F0FF5
:104BF0000F0F0F0F0F0F0F0F0F0F0F1F1F3F3F7FD5
:104C00007F7FFFFFFFFFFFFFFFFFFFFFFFFFFFFFB4
:104C1000FFFFFFFFFFFFFFFFFFFFFFFFFFFFFFFFA4
:104C2000FFFFFFFFFFFFFFFFFFFFFFFFFFFFFFFF94
:104C3000FFFFFFFFFFFFFFFFFFFFFFFFFFFFFFFF84
:104C4000FFFFFFFFFFFFFFFFFFFFFFFFFFFFFFFF74
:104C5000FFFFFFFFFFFFFFFFFFFFFFFFFFFFFFFF64
:104C6000FFFFFFFFFFFFFFFFFFFFFFFFFFFFFFFF54
:104C7000FFFFFFFFFFFFFFFFFFFFFFFFFFFFFFFF44
:104C8000FFFFFFFFFFFFFFFFFFFFFFFFFFFFFFFF34
:104C9000FFFFFFFFFFFFFFFFFFFFFFFEFEFEFEFC2B
:104CA000FCFCFCFCFCFCFCFCFCFCFCFCFCFCFCFC44
:104CB000FCFCFCFCFCFCFEFEFEFEFEFEFEFEFEFE20
:104CC000FEFEFEFEFEFEFEFEFEFEFEFFFFFFFFFFFF
:104CD000FFFFFFFFFFFFFFFFFFFFFFFFFFFFFFFFE4
:104CE000FFFFFFFFFFFFFEFEFEFEFEFEFEFCFCFCE4
:104CF000FCFCFCF8F8F8F8F8F8F0F0F0F0F0F1E16E
:104D0000E1E3E3E7E7C7CFCFDFDFFFBFFFFFFFFF51
:104D1000FFFFFFFFFFFFFFFFFFFFFFFFFFFFFFFFA3
:104D2000FFFFFFFF7F77767001037074777F0101CB
:104D3000DD0521F9FFFF1F1F0000DF1F3F0101DF1D
:104D40001F3F0000FFFFFFFF0F0FEFEFEF0000EF2F
:104D5000EFEF0F0FFFFFFFBFBFBFA0A0AAAA8A8A75
:104D6000AAAAA0A0BFBFBFFF0101BDB53535B535AB
:104D700035B5B5BD0101FFFFFFFF07077777770066
:104D8000007777770707FFFFFF7F7D7D7D7D7D7D46
:104D90001D1D4D6571797D7F7FEFEFEF00006F671F
:104DA0007777770000777777F7FFFFEFEFEFEF2F59
:104DB0000F00000F2DE1E3EFEFFFFFFBFBFB7B1B81
:104DC00003C0D8DBDBDB1B1BFBFBFBFF01018521E9
:104DD0007901016D6D6D6D0101FFFFFFFF7F3F9F49
:104DE000C7E1797FF8E0C79F3F7FFFFFFFFFEFED4F
:104DF0006D6D6D6D6D6D6DEDED0101FFFFFFFFFFE1
:104E0000FFFFFFFFFFFFFFFFFFFFFFFFFFFFFFFFB2
:104E1000FFFFFFFFFFFFFFFFFFFFFFFFFFFFBF9F42
:104E2000CFE3F0F8F3C7CFFF0000E7E7F0F8FF7E2D
:104E30003E8FC0F0FFFFFFC0C0FFFFFF0000FFFF7D
:104E4000FFFFF0F0FBFBFB0000FBFBFBF0F0FFFFC4
:104E5000FFFFBF9FD0F0B6360686F6F6F0D09FBFB4
:104E6000FFFF0000AFA3B0BCBFB0A0AFA3A3000082
:104E7000FFFFFFFFE0E0F7F7F780007777776060EC
:104E80000F0FFFFFFFFFFFFFBF3F0080FFFFFFFF90
:104E9000FFFFFFFBBB3900807E7F3FBC90C3C79103
:104EA000387E7FFFEFE7F3F9FCFEFF0000FFFEFC1A
:104EB000F9F3E7EFFFFBF9FCFE0000F6F6F6B63675
:104EC0000080FFFFFFFF0000F3F0F800009FDCF020
:104ED000E3C99CBEBFFFFEFEDF8F87D1D8DEDFDBDC
:104EE000C3879FFEFEFEFFFFFFFFC0C0EFEFEFC0D6
:104EF000C0BF3F0080FFFFFFFFFFFFFFFFFFFFFF7F
:104F0000FFFFFFFFFFFFFFFFFFFFFFFFFFFFFFFFB1
:104F1000FFFFFFFFFFFFFFFFFFFFFFFFFFFFFFFFA1
:104F2000FFFFFFFFFFFFFFFFFFFFFFFFFFFFFFFF91
:104F3000FFFFFFFFFFFFFFFFFFFFFFFFFFFFFFFF81
:104F4000FFFFFFFFFFFFFFFFFFFFFFFFFFFFFFFF71
:104F5000FFFFFFFFFFFFFFFFFFFFFFFFFFFFFFFF61
:104F6000FFFFFFFFFFFFFFFFFFFFFFFFFFFFFFFF51
:104F7000FFFFFFFFFFFFFFFFFFFFFFFFFFFFFFFF41
:104F8000FFFFFFFFFFFFFFFFFFFFFFFFFFFFFFFF31
:104F9000FFFFFFFFFFFFFFFFFFFFFFFFFFFFFFFF21
:104FA000FFFFFFFFFFFFFFFFFFFFFFFFFFFFFFFF11
:104FB000FFFFFFFFFFFFFFFFFFFFFFFFFFFFFFFF01
:104FC000FFFFFFFFFFFFFFFFFFFFFFFFFFFFFFFFF1
:104FD000FFFFFFFFFFFFFFFFFFFFFFFFFFFFFFFFE1
:104FE000FFFFFFFFFFFFFFFFFFFFFFFFFFFFFFFFD1
:104FF000FFFFFFFFFFFFFFFFFFFFFFFFFFFFFFFFC1
:105000002050000800000020200000006C01000873
:105010004050000820000020E01600008801000831
:1050200000000000000000000000000000A24A0490
:105030000000000000000000010203040607080948
:0400000508000131BD
:00000001FF
